:100000000C9461000C947E000C947E000C947E0095
:100010000C947E000C947E000C947E000C947E0068
:100020000C947E000C947E000C947E000C947E0058
:100030000C947E000C947E000C947E000C947E0048
:100040000C945A040C947E000C947E000C947E0058
:100050000C947E000C947E000C947E000C947E0028
:100060000C947E000C947E00000000002400270009
:100070002A0000000000250028002B0000000000DE
:1000800023002600290004040404040404040202DA
:100090000202020203030303030301020408102007
:1000A0004080010204081020010204081020000012
:1000B0000007000201000003040600000000000029
:1000C000000011241FBECFEFD8E0DEBFCDBF11E08E
:1000D000A0E0B1E0E4EFFCE002C005900D92A63490
:1000E000B107D9F718E0A6E4B1E001C01D92AB3822
:1000F000B107E1F70E942A050C9478060C940000E1
:100100008BE061E00E94D4038DE061E00E94D403A3
:1001100089E061E00E94D4038AE061E00E94D40398
:1001200083E060E00E94D403239AE0EBF0E080815A
:1001300080688083E1EBF0E08081887F816080834C
:1001400084E091E090936F0180936E0184E191E0EF
:10015000909371018093700184E291E09093730118
:100160008093720184E391E0909375018093740110
:10017000109263011092620180910001909101013F
:100180009093650180936401809102019091030135
:10019000909367018093660108951F9380E00E9409
:1001A0003004182F81E00E943004113039F481307E
:1001B00051F0209100013091010107C0209102010E
:1001C0003091030102C020E030E0C9011F91089581
:1001D0008F929F92AF92BF92CF92DF92EF92FF9257
:1001E0001F93DF93CF930F92CDB7DEB7182F5B012C
:1001F000882499246901EE24D7FCE094FE2C15C0D4
:10020000812F61E049830E94F803C701B6010E9473
:10021000C804812F60E00E94F803C701B6010E9464
:10022000C8040894811C911C49818A149B0444F3DE
:10023000812F642F0E94F8030F90CF91DF911F91BF
:10024000FF90EF90DF90CF90BF90AF909F908F90F6
:1002500008956F927F928F929F92AF92BF92CF92AA
:10026000DF92EF92FF920F931F93009709F051C016
:100270008091680190916901A0916A01B0916B0130
:100280005C016D01AA0CBB1CCC1CDD1C3C014D01AA
:10029000E7E09594879477946794EA95D1F7A40161
:1002A00093012A0D3B1D4C1D5D1D7C018D017CE0E1
:1002B00015950795F794E7947A95D1F72E213F216C
:1002C000402351232A253B254C255D252629372906
:1002D000482959297C018D0163E115950795F7940B
:1002E000E7946A95D1F767E0E622FF2461E070E0C9
:1002F000E626F72664E070E06E197F0904C0B59524
:10030000A795979587956A95D2F7282B392B4A2B75
:100310005B2BB901CA011F910F91FF90EF90DF9005
:10032000CF90BF90AF909F908F907F906F900895E7
:10033000AF92BF92CF92DF92EF92FF920F931F93F3
:10034000CF93DF937B018C0180918008909181088D
:10035000009711F5109268011092690110926A01DC
:1003600010926B0110926D0110926C0168EE73E0B7
:1003700080E090E00E94C8048DE090E065E070E0CD
:1003800041E050E022E330E00E94E80081E090E0AC
:10039000909381088093800880917E0890917F08D7
:1003A0008130910571F4E0916C01F0916D01EE0FD7
:1003B000FF1FEE0FFF1FEA58FE4FE082F18202831B
:1003C0001383E0916C01F0916D0180914401909153
:1003D0004501E817F90709F078C0E0905E01F09058
:1003E0005F010091600110916101C6E7D1E060E01A
:1003F00070E0AA24BB24650120E030E0A9011AC006
:1004000089919991A991B991E816F9060A071B07F4
:1004100010F47C018D010097A105B10549F0280F6A
:10042000391F4A1F5B1F0894A11CB11CC11CD11CA1
:100430006F5F7F4FE617F7071CF7E0925E01F092BF
:100440005F010093600110936101CA01B901A60127
:1004500095010E94560620935A0130935B01409308
:100460005C0150935D011092680110926901109235
:100470006A0110926B0110926D0110926C01109242
:1004800081081092800810927F0810927E088DE0FB
:1004900090E062E070E040E050E02AEF30E00E943F
:1004A000E8008DE090E063E070E040E050E022E39F
:1004B00030E00E94E8008DE090E065E070E040E010
:1004C00050E029E130E00E94E800DF91CF911F91D8
:1004D0000F91FF90EF90DF90CF90BF90AF90089575
:1004E0001F93182F0E94300461E0009709F060E02C
:1004F000812F0E94F8031F910895EF92FF920F93AE
:100500001F937B018C0180915E0190915F01A0910E
:100510006001B09161018093520190935301A093C7
:100520005401B093550180915A0190915B01A091C3
:100530005C01B0915D018093560190935701A093A7
:100540005801B093590180914E0190914F01A091B3
:100550005001B09151014091480150914901E81674
:10056000F9060A071B07B8F41092470110924601DA
:100570004115510551F18091560190915701019714
:1005800090935701809356011092490110924801AF
:1005900089E060E018C021E030E03093470120930B
:1005A00046014130510589F08091560190915701E3
:1005B00001969093570180935601309349012093FF
:1005C000480189E061E00E94F803C801B7010E9478
:1005D000670520E030E040E05FE30E94CB050E9429
:1005E00039059B01AC018091520190915301A0917A
:1005F0005401B091550160914C0170914D01281743
:1006000039074A075B07B8F410924B0110924A0170
:100610006115710551F1809158019091590101972F
:10062000909359018093580110924D0110924C0102
:100630008AE060E018C021E030E030934B01209365
:100640004A016130710589F08091580190915901FA
:100650000196909359018093580130934D01209356
:100660004C018AE061E00E94F80380916C01909156
:100670006D0120E18030920741F489E090E00E9412
:1006800070028AE090E00E9470021F910F91FF902B
:10069000EF900895EF92FF920F931F9380916C015A
:1006A00090916D0120E48130920764F010926D0109
:1006B00010926C01109268011092690110926A0107
:1006C00010926B018091680190916901A0916A017B
:1006D000B0916B010196A11DB11D809368019093AB
:1006E0006901A0936A01B0936B0180916C019091B4
:1006F0006D01019690936D0180936C010E94CD0075
:100700000E942901162FE72EF82E092F0E947D0244
:1007100083E00E9430048130910521F490937F089A
:1007200080937E0820917E0830917F08213031052A
:1007300039F4612F7E2D8F2D902F0E94980102C0D9
:100740001093B3001F910F91FF90EF9008958330A5
:1007500071F0843028F48130A1F0823021F514C08A
:100760008630B1F08730D1F08430E9F404C0809154
:1007700080008F7703C0809180008F7D8093800000
:10078000089584B58F7702C084B58F7D84BD0895A8
:100790008091B0008F778093B00008958091B00071
:1007A0008F7D8093B000089590E0FC01E656FF4FE6
:1007B0002491FC01EA57FF4FE491EE23C1F0F0E0F1
:1007C000EE0FFF1FE859FF4F85919491DC016623DE
:1007D00041F49FB7F8948C91209582238C939FBF0E
:1007E00008959FB7F8948C91822B8C939FBF0895A6
:1007F0000F931F93DF93CF930F92CDB7DEB7282FC0
:1008000030E0F901E255FF4F8491F901E656FF4FC0
:1008100014912A573F4FF90104910023D9F08823FE
:1008200021F069830E94A7036981E02FF0E0EE0FB9
:10083000FF1FEE58FF4F85919491DC019FB7F8940C
:10084000662321F48C911095812302C08C91812B19
:100850008C939FBF0F90CF91DF911F910F910895BF
:100860000F931F93282F30E0F901E255FF4F849139
:10087000F901E656FF4F04912A573F4FF9011491B1
:10088000112391F0882311F00E94A703E12FF0E0DB
:10089000EE0FFF1FE458FF4F85919491DC018C917E
:1008A000802321E030E011F420E030E0C9011F9105
:1008B0000F9108951F920F920FB60F9211242F934C
:1008C0003F938F939F93AF93BF93809186089091AE
:1008D0008708A0918808B091890830918A0801960C
:1008E000A11DB11D232F2D5F2D3720F02D5701960F
:1008F000A11DB11D20938A088093860890938708D4
:10090000A0938808B0938908809182089091830809
:10091000A0918408B09185080196A11DB11D809316
:10092000820890938308A0938408B0938508BF91B0
:10093000AF919F918F913F912F910F900FBE0F908C
:100940001F9018959FB7F8942091820830918308E2
:10095000409184085091850886B5A89B06C08F3FBA
:1009600021F02F5F3F4F4F4F5F4F9FBF542F432FBB
:10097000322F2227280F311D411D511D82E0220FE9
:10098000331F441F551F8A95D1F7B901CA01089535
:10099000EF92FF920F931F93CF93DF937B018C0114
:1009A0000E94A204EB010FC00E94A2046C1B7D0BED
:1009B00083E0683E780738F00894E108F1080109FF
:1009C0001109C851DC4FE114F1040105110561F76B
:1009D000DF91CF911F910F91FF90EF900895789440
:1009E00084B5826084BD84B5816084BD85B5826034
:1009F00085BD85B5816085BDEEE6F0E080818160D2
:100A00008083E1E8F0E010828081826080838081D1
:100A100081608083E0E8F0E0808181608083E1EBA9
:100A2000F0E0808184608083E0EBF0E08081816091
:100A30008083EAE7F0E08081846080838081826047
:100A40008083808181608083808180688083109230
:100A5000C1000895CF93DF930E94EF040E948000AD
:100A6000C0E0D0E00E944A032097E1F30E9400001A
:100A7000F9CF70D088F09F5790F0B92F9927B751D0
:100A8000A0F0D1F0660F771F881F991F1AF0BA9552
:100A9000C9F712C0B13081F077D0B1E0089574C0C9
:100AA000672F782F8827B85F39F0B93FCCF3869548
:100AB00077956795B395D9F73EF4909580957095A5
:100AC00061957F4F8F4F9F4F0895E89409C097FB22
:100AD0003EF490958095709561957F4F8F4F9F4F15
:100AE0009923A9F0F92F96E9BB279395F695879559
:100AF00077956795B795F111F8CFFAF4BB0F11F41C
:100B000060FF1BC06F5F7F4F8F4F9F4F16C08823C2
:100B100011F096E911C0772321F09EE8872F762FF8
:100B200005C0662371F096E8862F70E060E02AF039
:100B30009A95660F771F881FDAF7880F9695879525
:100B400097F9089557FD9058440F551F59F05F3F8E
:100B500071F04795880F97FB991F61F09F3F79F0DF
:100B600087950895121613061406551FF2CF469561
:100B7000F1DF08C0161617061806991FF1CF8695E3
:100B80007105610508940895E894BB2766277727C7
:100B9000CB0197F908950BD078C069D028F06ED0BA
:100BA00018F0952309F05AC05FC01124EECFCADFB8
:100BB000A0F3959FD1F3950F50E0551F629FF00170
:100BC000729FBB27F00DB11D639FAA27F00DB11DC9
:100BD000AA1F649F6627B00DA11D661F829F222752
:100BE000B00DA11D621F739FB00DA11D621F839FD9
:100BF000A00D611D221F749F3327A00D611D231FAF
:100C0000849F600D211D822F762F6A2F11249F57FC
:100C100050408AF0E1F088234AF0EE0FFF1FBB1F1F
:100C2000661F771F881F91505040A9F79E3F5105BE
:100C300070F014C0AACF5F3FECF3983EDCF38695CA
:100C400077956795B795F795E7959F5FC1F7FE2B69
:100C5000880F911D9695879597F9089597F99F6745
:100C600080E870E060E008959FEF80EC0895002434
:100C70000A941616170618060906089500240A9401
:100C800012161306140605060895092E0394000C87
:100C900011F4882352F0BB0F40F4BF2B11F460FF16
:100CA00004C06F5F7F4F8F4F9F4F0895A1E21A2EB0
:100CB000AA1BBB1BFD010DC0AA1FBB1FEE1FFF1F00
:100CC000A217B307E407F50720F0A21BB30BE40B50
:100CD000F50B661F771F881F991F1A9469F7609597
:100CE0007095809590959B01AC01BD01CF01089551
:040CF000F894FFCFA6
:100CF40001000200010000000200000003000000E7
:100D040004000000050000000600000007000000C9
:100D140008000000090000000A0000000B000000A9
:100D24000C0000000D0000000E0000000F00000089
:060D340010000000C201E6
:00000001FF
